:200000000C9467120C9492120C9492120C9492120C9492120C9492120C9492120C949212EB
:200020000C9492120C9492120C9492120C9492120C9492120C9412540C9492120C949212DE
:200040000C9492120C943E530C9482CA0C9492120C948F510C94B9510C9492120C94921249
:200060000C9492120C9492120C9492120C9492120C9492120C9492120C9492120C94921260
:200080000C9492120C9492120C949212F8A029A15AA162A239B139B139B139B139B139B1B7
:2000A00039B139B139B18DA1D2A119A239B139B139B139B139B139B139B139B139B139B102
:2000C00039B1E9A44AA5AAA50BA66CA6CDA62DA7B1A73AAC35A8ADA825A99AA90EAA82AAFC
:2000E000F6AA62ABCEAB39B139B139B139B139B1B7A31FA439B191AC05AD74ADEAAD12AEDA
:2001000068AEA5AEE2AE41AFA2AF01B060B08CB03AAE39B139B139B139B139B139B139B15A
:2001200039B139B139B139B139B14BA380A339B139B139B139B139B139B139B139B139B1E2
:2001400039B1DEA339B139B139B1C5B002B139B139B139B139B1EAA039B139B1A5A2DEA281
:200160002BA384A439B187A0084AD73B3BCE016E84BCBFFDC12F3D6C74319ABD56833DDA1B
:200180003D00C77F11BED9E4BB4C3E916BAAAABE000000803F05A84CCDB2D44EB93836A9D4
:2001A000020C50B9918688083CA6AAAA2ABE000000803F000001000F0015000E001200FE61
:2001C000FF160017000E001300FFFF030002001A001400FFFF1B00FFFF0D000C000400016C
:2001E0000000000E00070006001F00536574204D6963726F7374657070696E670048656107
:2002000074696E67204265640048656174696E67204578747275646572003D3D65786563AF
:200220003A4731313D3D003D3D726563763A47313D3D004649524D574152455F4E414D452E
:200240003A414E45545F41385F323031363037303156322E3020687474703A2F2F777777B1
:200260002E616E657433642E636F6D2F2056455253494F4E3A414E45542056322E30204D5A
:20028000414348494E455F545950453A414E45545F41382D4C2045585452554445525F432D
:2002A0004F554E543A31200044656275673A006F6B000D0A004E414E00494E460045727278
:2002C0006F723A00496E666F3A005761726E696E673A00526573656E643A004563686F3AD9
:2002E000006F6B200057726F6E6720636865636B73756D004D697373696E672063686563F7
:200300006B73756D00466F726D6174206572726F7200446F6E65207072696E74696E672039
:2003200066696C6500205800205900205A00204500204600205300205000204900204A0031
:2003400020520053442072656164206572726F72004572726F723A657870656374656420D8
:200360006C696E65200020676F742000736B69702000424C4B2000737461727400506F77F7
:20038000657255700045787465726E616C2052657365740042726F776E206F757420526504
:2003A000736574005761746368646F6720526573657400536F6674776172652052657365A3
:2003C0007400556E6B6E6F776E20636F6D6D616E643A00467265652052414D3A00583A0032
:2003E00020583A0020593A00205A3A0020453A00543A0020423A0020403A002054002040AD
:20040000002042403A0020524157003A002F00202F0053706565644D756C7469706C793AB3
:2004200000466C6F774D756C7469706C793A0046616E73706565643A005072696E74656454
:200440002066696C616D656E743A005072696E74696E672074696D653A006D20002064612C
:200460007973200020686F7572732000206D696E00496E76616C696420617263002C002032
:2004800000593A005A3A0045303A0045313A004D53312C4D53322050696E73005365742001
:2004A0006F7574707574200020746F20004820004C2000785F6D696E3A00785F6D61783AC8
:2004C00000795F6D696E3A00795F6D61783A007A5F6D696E3A007A5F6D61783A004A65729D
:2004E0006B3A00205A4A65726B3A00206C696E6561722073746570733A00207175616472B6
:20050000617469632073746570733A002C2073706565643D00454550524F4D207570646185
:20052000746564006C696E656172204C3A0020717561647261746963204B3A00546172674C
:20054000657445787472005461726765744265643A00504944204175746F74756E6520738E
:20056000746172740020626961733A200020643A2000206D696E3A2000206D61783A20004B
:20058000204B753A20002054753A200020436C61737369632050494400204B703A200020AA
:2005A0004B693A2000204B643A2000504944204175746F74756E65206661696C65642120EC
:2005C00054656D706572617475726520746F206869676800504944204175746F74756E6578
:2005E000206661696C6564212074696D656F757400504944204175746F74756E65206669ED
:200600006E6973686564202120506C61636520746865204B702C204B6920616E64204B64BB
:2006200020636F6E7374616E747320696E2074686520436F6E66696775726174696F6E2EBF
:2006400068206F7220454550524F4D004D54454D503A0068656174656420626564006578F9
:2006600074727564657220003A2074656D702073656E736F7220646566656374003A20779E
:200680006F726B696E67005072696E7465722073657420696E746F206472792072756E20A2
:2006A0006D6F646520756E74696C207265737461727421004175746F6C6576656C696E6714
:2006C00020656E61626C6564004175746F6C6576656C696E672064697361626C6564005A8E
:2006E0002D70726F6265206661696C6564005A2D70726F6265206D61783A005072696E74E4
:200700006572206865696768743A0077616974004175746F6C6576656C206163746976652D
:200720002028312F302900436F6E66696775726174696F6E2073746F72656420746F204547
:200740004550524F4D2E00436F6E66696775726174696F6E206C6F616465642066726F6D33
:2007600020454550524F4D2E00436F6E66696775726174696F6E20726573657420746F20A5
:2007800064656661756C74732E0050726F746F636F6C2076657273696F6E206368616E673A
:2007A00065642C20757067726164696E6700457874722E004550523A3020004550523A31CF
:2007C00020004550523A3220004550523A33200042617564726174650046696C616D656E2E
:2007E00074207072696E746564205B6D5D005072696E74657220616374697665205B735D5F
:20080000004D61782E20696E6163746976652074696D65205B6D732C303D6F66665D005363
:20082000746F70207374657070657220616674657220696E6163746976697479205B6D7351
:200840002C303D6F66665D005820686F6D6520706F73205B6D6D5D005920686F6D65207070
:200860006F73205B6D6D5D005A20686F6D6520706F73205B6D6D5D0058206D6178206C65EE
:200880006E677468205B6D6D5D0059206D6178206C656E677468205B6D6D5D005A206D619A
:2008A00078206C656E677468205B6D6D5D0058206261636B6C617368205B6D6D5D00592090
:2008C0006261636B6C617368205B6D6D5D005A206261636B6C617368205B6D6D5D004D611A
:2008E000782E206A65726B205B6D6D2F735D004D61782E205A2D6A65726B205B6D6D2F7394
:200900005D00582D6178697320737465707320706572206D6D00592D6178697320737465E9
:20092000707320706572206D6D005A2D6178697320737465707320706572206D6D00582D02
:2009400061786973206D61782E206665656472617465205B6D6D2F735D00592D617869735F
:20096000206D61782E206665656472617465205B6D6D2F735D005A2D61786973206D61788D
:200980002E206665656472617465205B6D6D2F735D00582D6178697320686F6D696E672079
:2009A0006665656472617465205B6D6D2F735D00592D6178697320686F6D696E67206665DB
:2009C000656472617465205B6D6D2F735D005A2D6178697320686F6D696E672066656564BC
:2009E00072617465205B6D6D2F735D00582D6178697320616363656C65726174696F6E2093
:200A00005B6D6D2F735E325D00592D6178697320616363656C65726174696F6E205B6D6D78
:200A20002F735E325D005A2D6178697320616363656C65726174696F6E205B6D6D2F735E8C
:200A4000325D00582D617869732074726176656C20616363656C65726174696F6E205B6D2D
:200A60006D2F735E325D00592D617869732074726176656C20616363656C65726174696FF5
:200A80006E205B6D6D2F735E325D005A2D617869732074726176656C20616363656C65722B
:200AA0006174696F6E205B6D6D2F735E325D004F5053206F7065726174696F6E206D6F64F4
:200AC00065205B303D4F66662C313D436C61737369632C323D466173745D004F5053206D4D
:200AE0006F76652061667465722078252072657472616374205B255D004F5053206D696E55
:200B00002E2064697374616E636520666F722066696C2E2072657472616374696F6E205B76
:200B20006D6D5D004F50532072657472616374696F6E206C656E677468205B6D6D5D004F8E
:200B400050532072657472616374696F6E206261636B6C617368205B6D6D5D004265642061
:200B600048656174204D616E61676572205B302D335D00426564205049442064726976656E
:200B8000206D61780042656420504944206472697665206D696E00426564205049442050D1
:200BA0002D6761696E004265642050494420492D6761696E004265642050494420442D672C
:200BC00061696E0042656420504944206D61782076616C7565205B302D3235355D0073747A
:200BE00065707320706572206D6D006D61782E206665656472617465205B6D6D2F735D0024
:200C00007374617274206665656472617465205B6D6D2F735D00616363656C6572617469E5
:200C20006F6E205B6D6D2F735E325D0068656174206D616E61676572205B302D335D00509E
:200C40004944206472697665206D617800504944206472697665206D696E0050494420509F
:200C60002D6761696E2F646561642D74696D650050494420492D6761696E005049442044BC
:200C80002D6761696E00504944206D61782076616C7565205B302D3235355D00582D6F66DD
:200CA00066736574205B73746570735D00592D6F6666736574205B73746570735D0074658E
:200CC0006D702E2073746162696C697A652074696D65205B735D0074656D702E20666F72BD
:200CE0002072657472616374696F6E207768656E2068656174696E67205B435D006469736C
:200D000074616E636520746F2072657472616374207768656E2068656174696E67205B6DF6
:200D20006D5D00657874727564657220636F6F6C6572207370656564205B302D3235355DD0
:200D400000616476616E6365204B205B303D6F66665D00616476616E6365204C205B303DB0
:200D60006F66665D00534420436172642072656D6F766564005344204361726420696E73FD
:200D8000657274656400534420696E6974206661696C006572726F722077726974696E67CA
:200DA00020746F2066696C6500426567696E2066696C65206C69737400456E642066696C7D
:200DC00065206C6973740046696C65206F70656E65643A002053697A653A0046696C6520E8
:200DE00073656C65637465640066696C652E6F70656E206661696C656400534420707269A3
:200E00006E74696E67206279746520004E6F74205344207072696E74696E67006F70656E99
:200E2000206661696C65642C2046696C653A200057726974696E6720746F2066696C653A26
:200E40002000446F6E6520736176696E672066696C652E0046696C652064656C65746564DF
:200E60000044656C6574696F6E206661696C6564004469726563746F7279206372656174D5
:200E80006564004372656174696F6E206661696C6564005344206572726F72436F64653A39
:200EA000004739300A4731205831313020593830204631353030004739310A4731205A3804
:200EC00020463430300A4739300A473120583430205931352046313530300A4739310A47E9
:200EE0003131205A2D382046313030004739310A4731205A3820463430300A4739300A47D0
:200F0000312058313630205931352046313530300A4739310A473131205A2D382046313072
:200F200030004739310A4731205A3820463430300A4739300A473120583136302059313974
:200F4000302046313530300A4739310A473131205A2D382046313030004739310A4731209E
:200F60005A3820463430300A4739300A47312058343020593139302046313530300A473904
:200F8000310A473131205A2D382046313030000701061C151C140000002243141F1FB80FAA
:200FA00028107C10EC100000000000003C11C411D01220139C1300000000A00F5C00600917
:200FC000690010097900C0088C007008A2002008BD00D007DE008007050130073401E0062F
:200FE0006D019006B20140060702F0056D02A005E80250057B0300052B04B004F8046004DD
:20100000EB06C003350920037F0B8002650DE001B00E40011D0FF000480FC8006C0FA00007
:20102000ED0F60FFFE0F48FE0400801AD8009808AC012007800250065403C8052804580593
:20104000FC040005D005B004A4066804780728044C08E8032009B003F4097003C80A3803A9
:201060009C0BF802700CB002440D6802180E0802EC0E8801C00F8800F00F00000400001BBE
:2010800054006009640010097400C008840070089C002008B800D007D800800700013007F4
:2010A0002C01E00668019006AC0140060002F0056802A005E0025005740300052404B00496
:2010C000F0046004DC051004E406C0030408700330092003780B8002600DE001A80E4001F1
:2010E000680FA000C00F0000E80F60FF0400700DD8004804AC0158038002D80254038002D2
:2011000028043802FC040002D005C801A4069801780770014C08480120091801F409F000CA
:20112000C80AC8009C0BA000700C7000440D3800180E0000EC0EA8FFC00FE8FE0000401F7E
:20114000450060094F0010095C00C0086B0070087D0020089200D007AC008007CC0030072E
:20116000DE00E006230190065E014006A601F005FF01A0056D025005F30200059603B00400
:201180005A046004400510044806C0036E077003A8082003EB09D002230B8002410C300273
:2011A000390DE001040E9001A20E4001170FF000690FA000A20F5000C60F0000DD0FB0FFD5
:2011C000EB0F60FF0400681D4C00500B94005809DC0050082401A8076C012807B401C00672
:2011E000FC017006440228068C02F005D402B8051C03880564035805AC033005F403100592
:201200003C04E8048404C804CC04A804140590045C057004A4055804EC05380434062004C0
:201220007C060804C406F0030C07D8035407C8039C07B003E40798032C08800374087003CD
:20124000BC085803040948034C09300394091803DC090803240AF0026C0AE002B40AC802E7
:20126000FC0AB002440BA0028C0B8802D40B70021C0C5802640C4002AC0C2802F40C10022B
:201280003C0DF001840DD801CC0DB801140E98015C0E7001A40E4801EC0E1801340FD80059
:2012A0007C0F8800C40F0800FC0F0000000000000000000000000000000000000000000035
:2012C0000000000000000000000000000000000004000016D800C006AC0178058002C004E6
:2012E000540348042804E803FC049803D0055003A40618037807D8024C08A80220097002BA
:20130000F4093802C80A08029C0BD001700C9001440D5001180EF800EC0E8800C00F000024
:201320000400401D900060091C01B007A801D00634023806C002C8054C036805D803180549
:201340006404D804F00498047C05600408063004940600042007D003AC07A80338088003D9
:20136000C408580350093003DC090803680AE002F40AB802800B88020C0C6002980C300259
:20138000240DF801B00DC0013C0E8001C80E3001540FB800B40F2800E00F00000400081DB5
:2013A000900058091C01B007A801C80634023006C002C0054C036805D80318056404D0040E
:2013C000F00498047C05600408063004940600042007D003AC07A80338088003C408580376
:2013E00050093003DC090803680AD802F40AB002800B88020C0C6002980C3002240DF801E6
:20140000B00DC0013C0E8001C80E3001540FB800B40F2800E00F00005344206572726F72A6
:20142000206669786564005344206572726F7220646964206E6F74207265636F76657221A2
:201440000053442052656164204572726F720042696E6172793A00436F6D6D616E6442751A
:2014600066666572000000000000000000000000000000000024F403D950C38EB1C2A23DE2
:2014800096828B3582127AE372816CCB66A861015DC758EB546151204E1E4B5648C14559A8
:2014A000431A41013F093D2F3B7139CD374036C93465331432D430A32F802E6B2D632C678D
:2014C0002B752A8E29B028DC2710274B268F25D9242B248223E0224322AC211A218D200443
:2014E00020801F001F841E0C1E971D261DB81C4E1CE61B821B201BC11A641A0A1AB2195D8F
:20150000190A19B9186A181C18D11788174017FA16B51673163116F115B31576153A1500D7
:2015200015C7148F1458142214EE13BA13881356132513F612C71299126C1240121512EBFE
:2015400011C1119811701148112111FB10D610B1108D106910461024100210E10FC00FA030
:201560000F800F610F420F230F060FE80ECB0EAF0E930E770E5C0E410E270E0D0EF30DDA30
:201580000DC10DA80D900D780D600D490D320D1B0D050DEF0CD90CC30CAE0C990C850C704E
:2015A0000C5C0C480C350C210C0E0CFB0BE80BD60BC40BB20BA00B8E0B7D0B6B0B5A0B4A84
:2015C0000B390B290B180B080BF80AE90AD90ACA0ABB0AAC0A9D0A8E0A800A710A630A5525
:2015E0000A470A390A2C0A1E0A110A040AF709EA09DD09D009C409B709AB099F0992098709
:20160000097B096F09630958094C09410936092B09200915090A090009F508EB08E008D6D5
:2016200008CC08C208B808AE08A4089A08900887087D0874086B08610858084F0846083DFA
:201640000834082C0823081A08120809080108F807F007E807E007D807D007C807C007B8C1
:2016600007B007A807A1070000420FA1071605D0030D038B022E02E801B2018601630145D5
:20168000012C0117010401F40049646C6500486F6D65205A00486F6D65205900486F6D65FF
:2016A000205800537465707065722044697361626C6564004B696C6C65640055706C6F6141
:2016C00064696E672E2E2E005344207072696E742073746F70706564206279207573657201
:2016E0002E0000002110422063308440A550C660E770088129914AA16BB18CC1ADD1CEE19C
:20170000EFF13112100273325222B5529442F772D662399318837BB35AA3BDD39CC3FFF38A
:20172000DEE36224433420040114E664C774A44485546AA54BB528850995EEE5CFF5ACC50A
:201740008DD55336722611163006D776F6669556B4465BB77AA719973887DFF7FEE79DD74A
:20176000BCC7C448E5588668A7784008611802282338CCC9EDD98EE9AFF9488969990AA94A
:201780002BB9F55AD44AB77A966A711A500A333A122AFDDBDCCBBFFB9EEB799B588B3BBB8A
:2017A0001AABA66C877CE44CC55C222C033C600C411CAEED8FFDECCDCDDD2AAD0BBD688D8A
:2017C000499D977EB66ED55EF44E133E322E511E700E9FFFBEEFDDDFFCCF1BBF3AAF599F4A
:2017E000788F8891A981CAB1EBA10CD12DC14EF16FE18010A100C230E320045025404670A9
:201800006760B9839893FBA3DAB33DC31CD37FE35EF3B1029012F322D232354214527762A9
:201820005672EAB5CBA5A89589856EF54FE52CD50DC5E234C324A0148104667447642454E9
:201840000544DBA7FAB79987B8975FE77EF71DC73CD7D326F2369106B01657667676154669
:2018600034564CD96DC90EF92FE9C899E9898AB9ABA94458654806782768C018E108823829
:20188000A3287DCB5CDB3FEB1EFBF98BD89BBBAB9ABB754A545A376A167AF10AD01AB32AA9
:2018A000923A2EFD0FED6CDD4DCDAABD8BADE89DC98D267C076C645C454CA23C832CE01C69
:2018C000C10C1FEF3EFF5DCF7CDF9BAFBABFD98FF89F176E367E554E745E932EB23ED10E69
:2018E000F01E7C3C3E5E2B3D3F2F5B5D3B2C2A225C004E6F206572726F7220666F756E64A6
:201900002E0043616E2774206F70656E20726F6F74206469726563746F72792E00496E76E6
:20192000616C696420666F726D61742C207265666F726D61742053442E004E6F20636172C0
:20194000642C2077726F6E6720636869702073656C6563742070696E2C206F7220535049A6
:201960002070726F626C656D3F0043616E27742061636365737320534420636172642E2019
:20198000446F206E6F74207265666F726D61742E000000FF00000000010100000000FF0075
:2019A00000416374696F6E3A256C61000310270200771B03102702007B1B03102702007F42
:2019C0001B0100000100831B0200000800851B03ED030400951B03EE0304009D1B03EF0356
:2019E0000400A51B03FA030400AD1B03FB030400B51B03FC030400BD1B0200000800C51BBA
:201A00000200000500D51B0200000C00DF1B5265717565737450617573653A004E6F205376
:201A200044204361726400436F6F6C646F776E005072656865617420414253005072656835
:201A400065617420504C41008025000040380000004B00008070000000960000C0DA0000C7
:201A600000E10000002C010008B2010000C2010000F401000084030090D0030000E8030010
:201A80000008070020A1070000100E0040420F0060E31600000000000200000800F71B0744
:201AA0001C0E1C151C1C1C4F6E004F666600596573004E6F00030004004E2F4100003A00B2
:201AC00020646179732000200042616E6742616E6700536C6F7742616E670044656164205A
:201AE00054696D6500504944005072696E74696E672E2E2E002064656620000000003FCD2A
:201B0000CC4C3D0AD7A33B6F12033A414E4554203344205052494E5445520057656C636FF6
:201B20006D20746F20414E45540020005072696E7465722072656164792E000040145404DA
:201B40000E15041C000000040A040000000000001F1F1F1F1F0000001F1111111F00000420
:201B60000A0A0A0E1F1F0E001C1F11111F0000001F1511151F1F00231C2A1C311C381C3F74
:201B80001C461C4D1C4D1C541C5B1C621C691C701C771C7E1C851C8C1C931C9A1CA11CA83F
:201BA0001CAF1CB61CBD1CC41CCB1CD21CD91CE01CE71CEE1CF51CFC1C031D0A1D111D182A
:201BC0001D1F1D261D4D1C2D1D341D3B1D421D491D501D571D4D1C5E1D651D6C1D731D4D9B
:201BE0001C2D1D7A1D811D881D8F1D961D9D1DA41DAB1DB21D731D4D1CB91D541CC01DC751
:201C00001DCE1DD51DDC1D0000000400E31D0000000400EB1D0000000400F31D00000004A9
:201C200000FB1D031E0000000000131E0000000000271E0000000000351E0000000000465C
:201C40001E0000000000541E0000000000651E03E80300006C1E03F5030102771E03F6036A
:201C60000204831E03540402008E1E03F70304009D1E03F8030100AA1E03F9030001B51E5E
:201C800003F4030102C11E0000000000CA1E0000000000DA1E0000000000EA1E0000000080
:201CA00000EB1E0000000000F41E0000000000041F0000000000141F0000000000151F007F
:201CC000000000001E1F00000000002E1F00000000003E1F00000000003F1F0000000000BF
:201CE000481F0000000000581F0000000000681F0000000000691F0000000000721F000066
:201D0000000000821F0000000000921F0000000000931F00000000009C1F0000000000AC58
:201D20001F0000000000BC1F0000000000BD1F03FD030010C61F041F040000D81F04480467
:201D40000000EA1F0337040000F61F0347040000022003380400000B2003420400101B20B9
:201D6000043C0400002B20043D0400003B20033A0400004A200259200000602003FE03008A
:201D800010672003FF0300106E200300040010752002E4190000812002CF1900008C200225
:201DA000EB190000982002D6190000A32002F2190000AF2002DD190000BA2002F9190000F1
:201DC000C92002071A0000D22002E2200000E92002001A0000F22002FC200000032102C8BE
:201DE0001900000B2112211921202127212E2135213C2143214A21512158215F2166216D78
:201E0000217421496E204C6576656C696E67202E2E2E007761697420666F72206D6F766562
:201E200020646F6E652100436F6E66696775726174696F6E0073746F72656420696E204576
:201E40004550524F4D00436F6E66696775726174696F6E006C6F6164656420662E204545E0
:201E600050524F4D004261636B2001005072696E742066696C65005061757365205072697C
:201E80006E740053746F70205072696E7400436F6E74696E7565205072696E7400556E6DEB
:201EA0006F756E742043617264004D6F756E7420436172640044656C6574652066696C6502
:201EC00000583A257830206D6D004D696E20656E6473746F703A257378004D617820656E05
:201EE0006473746F703A2573580000593A257831206D6D004D696E20656E6473746F703AB8
:201F0000257379004D617820656E6473746F703A25735900005A3A257832206D6D004D692F
:201F20006E20656E6473746F703A25737A004D617820656E6473746F703A25735A00005803
:201F40003A257830206D6D004D696E20656E6473746F703A257378004D617820656E647305
:201F6000746F703A2573580000593A257831206D6D004D696E20656E6473746F703A257376
:201F800079004D617820656E6473746F703A25735900005A3A257832206D6D004D696E20B9
:201FA000656E6473746F703A25737A004D617820656E6473746F703A25735A0000486F6D45
:201FC0006520416C6C005370656564204D756C2E3A256F6D25252500466C6F77204D756C66
:201FE0002E203A256F66252525005072656865617420504C410050726568656174204142BE
:202000005300436F6F6C646F776E0044697361626C652073746570706572004265642054D2
:20202000656D703A2025456202430054656D702E20313A202025453002430045787472756D
:202040006465722031204F666600457874722E20706F736974696F6E0003F00302007B21BF
:20206000486F6D65205800486F6D65205900486F6D65205A005820506F732E2046617374D4
:20208000005820506F736974696F6E005920506F732E2046617374005920506F73697469FB
:2020A0006F6E005A20506F732E2046617374005A20506F736974696F6E00517569636B20CF
:2020C00053657474696E677300506F736974696F6E00437573746F6D204C6576656C696EF0
:2020E000670002000004007F2145787472756465720046616E207370656564000200000731
:20210000008721534420436172640095210000000000A8210000000000B82100000000008E
:20212000CC210000000000D0210000000000D9210000000000E2210000000000EB210000B8
:20214000000000EF21000000000000220000000000112200000000001222000000000016D0
:202160002200000000002422000000000028220000000000392200000000003F2246224D3C
:202180001C4D2254225B224D1C62226922702277227E228522052565632F254563020725BB
:2021A00065422F25456202005A3A2578322020427566203A256F42004D756C3A256F6D2002
:2021C000202020466C6F773A256F6600256F7300583A257830206D6D00593A257831206D85
:2021E0006D005A3A257832206D6D00256F730045313A2565302F25453002437E256F300054
:2022000020423A2565622F25456202437E256F620000256F73005072696E74696E6720749C
:20222000696D65002555740046696C616D656E74207072696E74656400255566206D008C36
:2022400022000000000095220000000000A4220359040010AA22045A040000BA22035C0402
:202260000010BF220452040000D022031A040800DD22031B040000EB22031C040000F9228C
:20228000031D0400000723031E040000453A257833206D6D003120636C69636B203D20317D
:2022A000206D6D0053746172740041646A757374205A3A257A32206D6D004E657874004647
:2022C000616E2073706565643A254673252525005475726E2046616E204F66660053657432
:2022E0002046616E203235252525005365742046616E203530252525005365742046616EFD
:20230000203735252525005365742046616E2046756C6C0000002100240027002A00000018
:202320002200250028002B0000002000230026002900020202020202020204040404040449
:20234000040403030303030303030101010101010101010204081020408001020408102017
:20236000408001020408102040808040201008040201000000010200000000000000040395
:20238000070600000000000000000000000000000000494E46494E4954594E414ECDCCCC84
:2023A0003D0AD7233C17B7D13877CC2B329595E6241FB14F0A000020410000C84200401C05
:2023C0004620BCBE4CCA1B0E5AAEC59D7400407A10F35A00A0724E18090010A5D4E80000F7
:2023E000E87648170000E40B54020000CA9A3B000000E1F505000080969800000040420F22
:20240000000000A08601000000102700000000E803000000006400000000000A0000000005
:20242000000100000000002C76D888DC674F0823DFC1DFAE59E1B1B796E5E3E453C63AE692
:2024400051997696E8E6C28426EB898C9B62ED407C6FFCEFBC9C9F40F2BAA56FA5F4900527
:202460005A2AF75C936B6CF9676DC11BFCE0E40D47FEF520E6B500D0ED902E0300943577F2
:20248000050080841E080000204E0A000000C80C333333330F986E12831141EF8D211489BF
:2024A0003BE65516CFFEE6DB18D1844B381BF77C1D901DA4BBE424203284725E228100C941
:2024C000F124ECA1E53D2700FA52967E019F11241FBECFEFD0E4DEBFCDBF12E0A0E0B1E061
:2024E000EAE4F4EA01E00BBF02C007900D92AE3AB107D9F71BBE11E1AEEAB2E001C01D92B8
:20250000A331B107E1F714E2CEECD4E204C02297FE010E94D5D1C83CD107C9F70E94B1CC72
:202520000C9423D20C940000EF92FF920F931F93F22FF02E47FD02C0E4E001C0E4E1242F1E
:20254000332727FD309537FF03C0309521953F4F4F2D512F0F2FEE2E0E9457198F2D912F52
:202560001F910F91FF90EF900895CF93DF93BC018230910510F462E070E0A0910F11B0915F
:202580001011ED01E0E0F0E040E050E021C0888199818617970769F48A819B81309719F0B9
:2025A0009383828304C09093101180930F11FE0134C06817790738F44115510519F0841757
:2025C000950708F4AC01FE018A819B819C01E9012097E9F641155105A9F1CA01861B970B1F
:2025E000049708F4BA01E0E0F0E02AC08D919C91119784179507F9F46417750781F41296E4
:202600008D919C911397309719F09383828304C09093101180930F11FD0132964CC0CA0102
:20262000861B970BFD01E80FF91F6193719302978D939C9340C0FD01828193819C01D901DE
:202640001097A1F680910D1190910E11892B41F4809160019091610190930E1180930D117C
:2026600040916201509163014115510541F44DB75EB780915E0190915F01481B590B20917E
:202680000D1130910E11CA01821B930B8617970780F0AB014E5F5F4F8417950750F0420FBC
:2026A000531F50930E1140930D11F9016193719302C0E0E0F0E0CF01DF91CF910895CF93D2
:2026C000DF93009709F450C0EC0122971B821A82A0910F11B0911011109709F140E050E061
:2026E000AC17BD0708F1BB83AA83FE0121913191E20FF31FAE17BF0779F48D919C9111978E
:20270000280F391F2E5F3F4F3983288312968D919C9113979B838A834115510571F4D0936C
:202720001011C0930F1120C012968D919C911397AD01009711F0DC01D3CFFA01D383C2832D
:2027400021913191E20FF31FCE17DF0769F488819981280F391F2E5F3F4FFA0131832083BB
:202760008A819B8193838283DF91CF910895A0E0B0E0EDEBF3E10C94F2D1EC015B016115CC
:20278000710519F0FB0191838083F9908F2D90E00E94D9D1892BC9F7FDE2FF1621F4F990A0
:2027A000EE24E39405C02BE2F21609F4F990EE248E0101501040C80162E973E243E050E032
:2027C0000E944616892B01F58E010E5F1F4FC80165E973E245E050E00E944616892B19F467
:2027E0008E01095F1F4FA114B10419F0F50111830083E0FC04C070E090E080E814C070E008
:2028000090E080E86FEF08C1C8016AE973E243E050E00E944616892B69F4A114B10429F45F
:2028200070E090E080EC6FE7F7C02296F501D183C083F6CF8824992440E050E060E070E00C
:20284000EF2DE053EA30A0F5F2E0EF2A8E2D90E09C0128703070E2FE06C0232B79F5089491
:20286000811C911C2BC0232B19F0089481089108DB01CA0112E0880F991FAA1FBB1F1A95D4
:20288000D1F7480F591F6A1F7B1F440F551F661F771F4E0F511D611D711D483929E95207D9
:2028A00029E9620729E1720748F084E0E82A06C0EE3F31F4E3FC39C098E0E92AF990C0CFD9
:2028C000E53311F0E53189F529912D3219F4E0E1EE2A05C02B3219F081E090E003C02991D3
:2028E00082E090E0E22FE053EA3018F0C81BD90B1CC020E030E0FCE020383F075CF4C90159
:20290000880F991F880F991F280F391F220F331F2E0F311DE991E053EA3068F3E4FE03C0B5
:20292000309521953F4F820E931ECE2CDD24E1FE07C0A114B10421F02197F501D183C083EC
:20294000CB01BA010E9451CE7B018C01F3E0CF22DD2423E0C216D10421F417FB109517F9D5
:20296000109557016801C801B70120E030E040E050E00E94B1CD882309F44AC097FE0DC0DC
:2029800021EBE22E23E2F22E9094819491089394C0E2D0E000E010E012C099ECE92E93E2F8
:2029A000F92EF6CFF7012591359145915491C601B5010E9461D05B016C018C1A9D0A8C16F4
:2029C0009D0684F7D595C7950F5F1F4F0630110529F08CEF9FEFE80EF91EF1CFC501D6015F
:2029E0007C018D018C2D880F8D2D881F8F3F51F0C601B50120E030E040E050E00E94B1CD0F
:202A0000882331F482E290E090931211809311117E2D9F2D802F612F272F392F482F562F27
:202A2000B901CA01CDB7DEB7ECE00C940ED22F923F925F926F927F928F929F92AF92BF9233
:202A4000CF92DF92EF92FF920F931F93CF93DF938C011B01EA016115710519F0FB019183D1
:202A60008083209749F0CE010297839728F020E030E040E050E0F6C0F801A1908F018A2D42
:202A800090E00E94D9D1892BB9F7FDE2AF1631F4F801A1908F015524539407C0FBE2AF16CA
:202AA00019F4F801A1908F015524209719F0C031D105C1F4F0E3AF1679F4F80180818837DC
:202AC00011F0883549F4F801A1800E5F1F4FF2E05F2AC0E1D0E006C0209721F480E3A816A7
:202AE000E9F427C0C830D10531F1C930D10524F4C230D10531F50CC0CA30D10589F0C03147
:202B0000D105F9F4C12CD12CE12CB8E0FB2E28C0C12CD12CE12CA0E4FA2E22C0CAE0D0E073
:202B2000FCECCF2EFCECDF2EFCECEF2EFCE0FF2E17C0C8E0D0E0C12CD12CE12CE0E1FE2E9A
:202B40000FC09E01442737FD4095542F60E070E080E090E80E948AD1C901DA016C017D011B
:202B600020E030E040E050E060E03E01882477FC8094982C70EDB72EBA0CE9E0EB1570F44A
:202B80008A2D81548A3118F499ECB92E06C08A2D81568A3150F589EAB82EBA0C8B2D90E0DB
:202BA0008C179D0714F56F3FE1F0C216D306E406F506B0F0CA01B901A40193010E9437D1A8
:202BC0009B01AC012B0D311D411D511D2130F0E03F07F0E04F07F0E85F0710F461E001C089
:202BE0006FEFF801A1908F01C5CF2114310481F0662331F001501040F1011183008308C032
:202C000051FE1AC002501040F1011183008314C067FF12C050FC05C02FEF3FEF4FEF5FE7F3
:202C200004C020E030E040E050E882E290E0909312118093111116C050FE08C05095409573
:202C4000309521953F4F4F4F5F4F0CC057FF0AC082E290E090931211809311112FEF3FEF98
:202C60004FEF5FE7B901CA01DF91CF911F910F91FF90EF90DF90CF90BF90AF909F908F9073
:202C80007F906F905F903F902F900895FB01DC014150504088F08D9181341CF08B350CF4FB
:202CA000805E659161341CF06B350CF4605E861B611171F3990B0895881BFCCFFB01DC0142
:202CC00002C001900D9241505040D8F70895FB01DC010D900020E9F7119701900D92002007
:202CE000E1F70895FC018191861721F08823D9F7992708953197CF010895FB01DC018D919E
:202D0000019080190110D9F3990B0895FB01DC0101900D920020E1F70895FB01DC01415063
:202D2000504048F001900D920020C9F701C01D9241505040E0F70895FC0181E090E0019057
:202D4000061609F4CF010020D1F701970895A0E0B0E0EDEAF6E10C94F6D17C01EB018A0154
:202D6000690109C0CE012196F6010995F70181937F010150104001151105A1F7CDB7DEB7FB
:202D8000E8E00C9412D2BF92CF92DF92EF92FF920F931F937B018C01FB010995B82EC8010C
:202DA0000196F7010995C82EC8010296F7010995D82EC8010396F7010995982F6B2D7C2DF3
:202DC0008D2D1F910F91FF90EF90DF90CF90BF900895DF92EF92FF920F931F937B018C0141
:202DE000FB010995D82EC8010196F7010995982F8D2D1F910F91FF90EF90DF900895A0E0D2
:202E0000B0E0E5E0F7E10C94F6D1EC017B018A01690109C0CE012196F70161917F01F60110
:202E200009950150104001151105A1F7CDB7DEB7E8E00C9412D2BF92CF92DF92EF92FF92F5
:202E40000F931F93D52EC62EB72E79018C01642FF9010995C80101966D2DF7010995C801B7
:202E600002966C2DF7010995C80103966B2DF70109951F910F91FF90EF90DF90CF90BF9080
:202E80000895DF92EF92FF920F931F93D72E7A018C01FA010995C80101966D2DF701099588
:202EA0001F910F91FF90EF90DF900895AEE0B0E0ECE5F7E10C94FAD10D891E8986E08C83C4
:202EC0001A8309838FEF9FE79E838D839E01275E3F4FCE0101966F89788DA9010E947A17A2
:202EE0002F813885020F131FF80110822E96E4E00C9416D2ABE0B0E0E0E8F7E10C94ECD16F
:202F00003C012B015A01FC0117821682838181FD03C06FEF7FEFC6C19AE0892E1E0108943B
:202F2000211C311CF3012381F20123FD859123FF81912F01882309F4B2C1853239F423FDC3
:202F4000859123FF81912F01853229F490E0B3010E94A71BE7CF982FFF24EE249924FFE14C
:202F6000FF15D0F09B3269F09C3228F4903259F0933291F40EC09D3249F0903369F441E001
:202F800024C052E0F52A84E0F82A28C098E0F92A25C0E0E1FE2A22C0F7FC29C0892F8053DC
:202FA0008A3070F4F6FE05C0989C902C1124980E15C0E89CE02C1124E80EF0E2FF2A0EC016
:202FC0009E3229F4F6FC6BC140E4F42A07C09C3619F450E8F52A02C0983649F4F20123FDC7
:202FE000959123FF91912F01992309F0B8CF892F8554833018F08052833038F444E050E0AA
:20300000A40EB51E5FE359830FC0933631F0933779F0933509F056C020C0F5018081898367
:2030200042E050E0A40EB51E610101E010E012C0F501C080D180F6FC03C06FEF7FEF02C0EA
:20304000692D70E042E050E0A40EB51EC6010E949C1B8C015FE7F52214C0F501C080D1804E
:20306000F6FC03C06FEF7FEF02C0692D70E042E050E0A40EB51EC6010E94911B8C0150E876
:20308000F52AF3FE07C01AC080E290E0B3010E94A71BEA948E2D90E008171907A8F30EC044
:2030A000F601F7FC8591F7FE81916F0190E0B3010E94A71BE110EA940150104001151105D5
:2030C00079F7EAC0943611F0993669F5F7FE08C0F501208131814281538184E090E00AC0A3
:2030E000F501808191819C01442737FD4095542F82E090E0A80EB91E9FE6F92257FF09C015
:2031000050954095309521953F4F4F4F5F4FE0E8FE2ACA01B901A1012AE030E00E94D31BDF
:20312000D82ED21840C0953729F41F2D1F7E2AE030E01DC01F2D197F9F3661F0903720F4F1
:20314000983509F0ACC00FC0903739F0983709F0A6C004C028E030E00AC0106114FD1460B4
:2031600020E130E004C014FD166020E132E017FF08C0F501608171818281938144E050E0CE
:2031800008C0F50180819181BC0180E090E042E050E0A40EB51EA1010E94D31BD82ED218D8
:2031A0008FE7F82EF122F6FE0BC05EEFF522D91438F4F4FE07C0F2FC05C08FEEF82202C05F
:2031C0001D2D01C0192DF4FE0DC0FE01ED0DF11D8081803319F499EEF92208C01F5FF2FE3F
:2031E00005C003C08F2D867809F01F5F0F2DF3FC14C0F0FE0FC01E1510F09D2C0BC09D2CCA
:203200009E0C911A1E2D06C080E290E0B3010E94A71B1F5F1E15C0F304C01E1510F4E11A04
:2032200001C0EE2404FF0FC080E390E0B3010E94A71B02FF1DC001FD03C088E790E00EC0B2
:2032400088E590E00BC0802F867891F001FF02C08BE201C080E2F7FC8DE290E0B3010E941E
:20326000A71B06C080E390E0B3010E94A71B9A94D914C0F3DA94F101ED0DF11D808190E034
:20328000B3010E94A71BDD20A9F706C080E290E0B3010E94A71BEA94EE20C1F743CEF30180
:2032A00066817781CB012B96E2E10C9408D2A9E0B0E0EDE5F9E10C94F0D16A01122FA02EC5
:2032C000BE2C2BE3201718F42CE3922E02C0902E9394AE014F5F5F4F27E0092D0E94B91A80
:2032E000BC018981E82EFF24C70189709070019711F4ADE209C0B1FE02C0ABE205C0B0FCA9
:2033000002C0A0E001C0A0E2E3FE3BC0AA2311F423E001C024E0211710F020E002C0121B8B
:20332000212FEB2CB4FE02C0322F0AC0F601322F80E202C0819331503323E1F7C20ED11C8B
:20334000AA2319F0F601A1936F01F6013196E2FE05C09EE4D6019C9381E404C09EE6D6018D
:203360009C9381E611968C9391833296DF01832F90E202C09D9381508823E1F7E30FF11DCB
:2033800040C0E2FE42C0AA2311F423E001C024E0211710F020E002C0121B212FEB2CB4FE71
:2033A00002C0922F0AC0F601922F80E202C0819391509923E1F7C20ED11CAA2319F0F601D1
:2033C000A1936F01F6013196E2FE08C089E4D6018C938EE411968C9386E407C089E6D601D1
:2033E0008C938EE611968C9386E681833296DF01892F20E202C02D9381508823E1F7E90FD4
:20340000F11D10822EEF3FEFAFC0161617061CF041E050E003C0AB014F5F5F4FAA2019F40A
:2034200080E090E003C08A2D90E0019620E030E0AA2311F021E030E0240F351F280F391F36
:20344000812F90E02817390714F020E002C0121B212F4B2D50E0CA0180719070B4FC0DC0A9
:20346000B3FC0BC0F601322F40E202C0419331503323E1F7C20ED11C01C0322FAA2319F05E
:20348000F601A1936F01892B11F0132F0AC0F601132F80E302C0819311501123E1F7C30E20
:2034A000D11C092D060FBA8090E1892E912C8E209F20E4FE04C0F1E3BF1609F40150101685
:2034C00014F001E003C0093008F008E09B0177FF02C020E030E0CB010196821B930BFE01AA
:2034E0003196E80FF91F8EE2F82E3B01601A71088A2D90E044275527481B590B8FEF2F3F70
:20350000380719F4D601FD926D01621773072CF06216730614F4808101C080E3215030407D
:2035200031962417350724F0D6018D936D01E6CF2617370749F4B5E3BB1528F0BB1621F401
:203540008114910409F481E3F6018193D601812F90E202C09C93815011968823D9F7E10F08
:20356000F11D108220E030E0C9012996EEE00C940CD2283008F027E03327DA01990F311D44
:2035800087FD916000966105710539F432602E5F3D9330E32A95E1F708959F3F30F080382B
:2035A0007105610509F03C5F3C5F3D93913008F08068911DDF93CF931F930F93FF92EF92A7
:2035C000192F987F9695E92F96959695E90FFF27E95DFB4D99273327EE24FF24A701E70168
:2035E00005900894079428F4360FE71EF81E491F511D660F771F881F991F0694A1F705907C
:20360000079428F4E70EF81E491F561FC11D770F881F991F661F0694A1F70590079428F445
:20362000F80E491F561FC71FD11D880F991F661F771F0694A1F70590079420F4490F561F26
:20364000C71FD81F990F661F771F881F0694A9F784911095177041F0D695C79557954795E8
:20366000F794E7941A95C1F7EDECF3E268941590159135916591959105907FE27395E1180F
:20368000F10A430B560BC90BD009C0F7E10CF11E431F561FC91FD01D7EF4703311F48A953B
:2036A000E6CFE894015030F0080F0AF40027021708F4202F2395022F7A3328F079E37D93AE
:2036C0002A95E9F710C07D932A9589F6069497956795379517951794E118F10A430B560BA5
:2036E000C90BD00998F023957E9173957A3308F070E37C932013B8F77E9170617D9330F0CD
:20370000839571E37D9370E32A95E1F71124EF90FF900F911F91CF91DF91992787FD909577
:203720000895FC010590615070400110D8F7809590958E0F9F1F0895FC01615070400190F8
:203740000110D8F7809590958E0F9F1F08950F931F93CF93DF938C01EB018B8181FF1BC04F
:2037600082FF0DC02E813F818C819D812817390764F4E881F9810193F983E88306C0E885F9
:20378000F985802F0995892B31F48E819F8101969F838E8302C00FEF1FEFC801DF91CF9125
:2037A0001F910F910895FA01AA27283051F1203181F1E8946F936E7F6E5F7F4F8F4F9F4F21
:2037C000AF4FB1E03ED0B4E03CD0670F781F891F9A1FA11D680F791F8A1F911DA11D6A0FE3
:2037E000711D811D911DA11D20D009F468943F912AE0269F11243019305D3193DEF6CF0136
:203800000895462F4770405D4193B3E00FD0C9F7F6CF462F4F70405D4A3318F0495D31FD4D
:203820004052419302D0A9F7EACFB4E0A6959795879577956795BA95C9F700976105710556
:2038400008959B01AC010A2E06945795479537952795BA95C9F7620F731F841F951FA01D3A
:2038600008959C01F999FECF32BD21BDF89A80B508959C01F999FECF1FBA32BD21BD60BDBF
:203880000FB6F894FA9AF99A0FBE089508956091640170916501809166019091670168176C
:2038A000790744F4709367016093660183ED93E00E946D2D0895BC01893191051CF469E168
:2038C00070E005C0893C910514F068EC70E07093BE0C6093BD0C81E294E00E946D2D089597
:2038E000EF92FF920F931F93CF93DF93EC01893191051CF4C9E1D0E006C081E0C53FD807DD
:2039000014F0C4EFD1E0BE01882777FD8095982F0E9453CE7B018C016091BB0C7091BC0C34
:20392000882777FD8095982F0E9453CE9B01AC01C801B7010E94B8CD9B01AC016091B70CD7
:203940007091B80C8091B90C9091BA0C0E9461D06093B70C7093B80C8093B90C9093BA0CD4
:20396000D093BC0CC093BB0C82E194E0BE010E946D2DDF91CF911F910F91FF90EF90089565
:203980000E94BA549C0180916401909165012817390724F4309365012093640108950E94C6
:2039A0004A5108952F923F924F925F926F927F928F929F92AF92BF92CF92DF92EF92FF9291
:2039C0000F931F93DF93CF93CDB7DEB728970FB6F894DEBF0FBECDBFA090180CB090190CE7
:2039E000C0901A0CD0901B0C20901C0C30901D0C40901E0C50901F0C8091200C9091210C79
:203A0000A091220CB091230C89839A83AB83BC832091400C3091410C4091420C5091430CE7
:203A20006090440C7090450C8090460C9090470C8091480C9091490CA0914A0CB0914B0C26
:203A40008D839E83AF83B8878091D40B882359F40F2EF0E0EF2EF0E0FF2EF0E80F2FFFE3BD
:203A60001F2FF02D0AC00F2EF0E7EF2EF2E4FF2EF1E20F2FFDE31F2FF02DC601B5010E9462
:203A8000EBCCA80197010E9461D0AB01BC018DED93E022E00E94A82E8091D40B882359F4A3
:203AA0000F2EF0E0EF2EF0E0FF2EF0E80F2FFFE31F2FF02D0AC00F2EF0E7EF2EF2E4FF2E7E
:203AC000F1E20F2FFDE31F2FF02DC201B101A40193010E94EBCCA80197010E9461D0AB01C3
:203AE000BC0184EE93E022E00E94A82E8091D40B882359F40F2EF0E0EF2EF0E0FF2EF0E8C3
:203B00000F2FFFE31F2FF02D0AC00F2EF0E7EF2EF2E4FF2EF1E20F2FFDE31F2FF02D6981D6
:203B20007A818B819C812D813E814F8158850E94EBCCA80197010E9461D0AB01BC0188EEFB
:203B400093E022E00E94A82E2091140C3091150C4091160C5091170CA090E10BB090E20B85
:203B6000C090E30BD090E40B8091D40B882359F40F2EF0E0EF2EF0E0FF2EF0E80F2FFFE3B1
:203B80001F2FF02D0AC00F2EF0E7EF2EF2E4FF2EF1E20F2FFDE31F2FF02DCA01B9010E9439
:203BA00053CEA60195010E9461D0A80197010E9461D0AB01BC018CEE93E022E00E94E42EB4
:203BC00028960FB6F894DEBF0FBECDBFCF91DF911F910F91FF90EF90DF90CF90BF90AF9056
:203BE0009F908F907F906F905F904F903F902F9008950F931F930FE614E0C8016DE00E947B
:203C0000C952C8016AE00E94C9521F910F9108956F927F928F929F92AF92BF92CF92DF9204
:203C2000EF92FF920F931F93DF93CF9300D000D0CDB7DEB76091D50C7091D60C8091D70CE8
:203C40009091D80C2FE632E143E85AE30E9461D07B018C01CE01019661E870E044E050E0A0
:203C600021E33CE10E94A716C801B70129813A814B815C810E94EBCCAB01BC0189E394E093
:203C800022E00E94A82E8AE594E00E944A2DE0911802F0911902638574858585968520E081
:203CA00030E040E751E40E94BFCF18160CF47AC06624772443018DE790E061E37CE10E9470
:203CC000C3167B018C01E60CF71C081D191DC801B70120E831E541E050E00E94ACD1922ED3
:203CE000832E742E652E622F732F842F952F20E83EEA4EEF5FEF0E9437D15B016C01AE0C4C
:203D0000BF1CC01ED11E8BE494E0492D582D672D762D0E94942DC601B50120E13EE040E0C7
:203D200050E00E94ACD1122F032FF42EE52E8DE594E0422F502F6F2D7E2D0E94942D612F7C
:203D4000702F8F2D9E2D20EF31EF4FEF5FEF0E9437D1A60EB71EC81ED91EC601B5012CE3E6
:203D600030E040E050E00E94ACD184E694E0BA01A9010E94942D8CE694E00E94D12D0F90F9
:203D80000F900F900F90CF91DF911F910F91FF90EF90DF90CF90BF90AF909F908F907F905F
:203DA0006F9008950E94CACA2091D10C3091D20C4091D30C5091D40C621B730B840B950B69
:203DC00028EE33E040E050E00E948AD1C901DA013C014D0170CF1F93182FE091C102F09150
:203DE000C20244A555A566A577A580EF93E022E00E94A82EE091C102F091C20240A951A93D
:203E000062A973A98FE094E020E00E94A82E0E94CA3BAB01BC0183EF93E022E00E94A82EB1
:203E20004091E2015091E3016091E4017091E5018FE094E020E00E94A82E112391F086E0D6
:203E400094E061E070E00E94A52D6CEF7FE08091DA019091DB01681B790B8BE094E00E94BE
:203E6000A52DE091D701F0E0EB56FB4F608181E094E070E00E94A52DE0916A01EF3F29F42B
:203E8000E091C102F091C202E081F0E0EB56FB4F608187EF93E070E00E94A52D0E94F91DA7
:203EA0001F9108958091B0028823C1F01092B0020E94DA448091690181508093690188230E
:203EC00049F480916801833010F40E949C3E85E0809369018FED9FE00E947BC7089508C0D2
:203EE0000E942F4E0E94521F8FED9FE00E94009F8091CE0B8823A1F70895CF93DF9397FD22
:203F000010C0EC018F3F910521F01CF0CFEFD0E002C0009731F080914E0C886080934E0CBB
:203F200007C080914E0C877F80934E0CC0E0D0E0662311F00E946F1F8091980490E0C817D6
:203F4000D90729F08FE294E0BE010E946D2DC0939804DF91CF9108952F923F924F925F92C8
:203F60006F927F928F929F92AF92BF92CF92DF92EF92FF920F931F93DF93CF93CDB7DEB726
:203F8000E4970FB6F894DEBF0FBECDBF6C0180917302282F84FF19C0D6018C9182FD09C07D
:203FA00081FF13C016968D919C9117978F36910561F00E94CACA60938D0470938E048093FB
:203FC0008F04909390040C94482CF6010081118102FF82C3808591858431910509F43EC2D0
:203FE0008531910570F48430910518F4029750F524C08430910509F4CBC10B9709F060C368
:2040000005C28A32910509F473C28B32910540F48531910509F426C24C9709F051C325C2C6
:204020008B35910509F48FC28C35910509F48FC28A35910509F044C383C287E292E00E9420
:20404000D12DE4C18091180C9091190CA0911A0CB0911B0C8D879E87AF87B88B80911C0C98
:2040600090911D0CA0911E0CB0911F0C898B9A8BAB8BBC8B8091200C9091210CA091220C8F
:20408000B091230C8D8B9E8BAF8BB88FC6010E949173882309F414C3FE01359688E0DF01F0
:2040A0001D928A95E9F7F601828180FD05C020E030E040E050E007C0D60197962D913D915F
:2040C0004D915C919A978091D40B882351F0CA01B90123E333E34BEC51E40E9461D09B018C
:2040E000AC012D833E834F835887F601828181FD05C020E030E040E050E007C0D6019B9685
:204100002D913D914D915C919E978091D40B882351F0CA01B90123E333E34BEC51E40E9488
:2041200061D09B01AC0129873A874B875C87FE01799680E1DF011D928A95E9F78091180CAD
:204140009091190CA0911A0CB0911B0C898F9A8FAB8FBC8F80911C0C90911D0CA0911E0CB6
:20416000B0911F0C8D8F9E8FAF8FB8A38091200C9091210CA091220CB091230C89A39AA32E
:20418000ABA3BCA360913C0C70913D0C80913E0C90913F0C0E9453CE2091E10B3091E20B1A
:2041A0004091E30B5091E40B0E9461D06DA37EA38FA398A7F601828182FFC7C087A490A896
:2041C000A1A8B2A88091D40B882351F0C501B40123E333E34BEC51E40E9461D04B015C01E1
:2041E000698D7A8D8B8D9C8D2D853E854F8558890E94EACC69AB7AAB8BAB9CAB6D8D7E8D44
:204200008F8D98A129893A894B895C890E94EACC2B013C01C501B40120E030E040E850E473
:204220000E9461D0A50194010E9461D07B018C0169A97AA98BA99CA99B01AC010E9461D0CA
:204240009B01AC01C801B7010E94EACC7B018C01C301B201A30192010E9461D09B01AC0169
:20426000C801B7010E94EACC0E94CED07B018C0169A97AA98BA99CA9A30192010E94CCCFFA
:204280009B01AC0117FB109517F91095C801B7010E94B8CD7B018C01A80197010E941BD1E9
:2042A000882329F081E794E00E94D62D09C2D60118968D919C911997039721F417FB109508
:2042C00017F91095C501B40120E030E040E050E00E94B1CD882344F417FB109517F91095DF
:2042E000B7FAB094B7F8B094C301B201A80197010E9461D09B01AC0169A97AA98BA99CA954
:204300000E94EACC20E030E040E05FE30E9461D06D837E838F83988769A97AA98BA99CA930
:20432000A80197010E9461D09B01AC01C301B2010E94EBCC20E030E040E05FE30E9461D00B
:2043400069877A878B879C870CC06D817E818F81988529853A854B855C850E94CCCF4B01AA
:204360005C01E0E0D60118968D919C911997029709F4E1E0CE010D96BE01675E7F4FAE01D6
:204380004B5F5F4F95018401EE2E0E94B75A98C10E946F1FF6018081918193FD04C0EE24E2
:2043A000FF24870107C0D6019396ED90FD900D911C91969792FF0DC0F601678D70A181A18D
:2043C00092A128EE33E040E050E00E9437D17B018C010E94CACA5B016C01AE0CBF1CC01E0C
:2043E000D11E04C00E942F4E0E94521F0E94CACAA6019501261B370B480B590BDA01C90186
:2044000080509449A543B74768F35AC18AE192E00E94D12DD6018D919C91119792FF13C0E8
:204420005F968D919D910D90BC91A02D20914D0C0097A105B10519F0822F806202C0822F78
:204440008F7D80934D0CC6010E949173882309F437C180E061E00E940C6A32C181E08093B7
:20446000D40B2EC11092D40B2BC1C80188739070892B11F080E008C0C80156E0969587951A
:204480005A95E1F78095817006FF08C01092140C1092150C1092160C1092170C882321F0B8
:2044A00041E051E061E01DC0F60120813181C90188739070892BC1F0C90143E096958795E4
:2044C0004A95E1F7582F5170C90134E0969587953A95E1F7682F617025FD02C040E001C0E4
:2044E00041E0852F0E94457880E00E94CC6EE8C081EA9EE00E94624C87EB9EE00E94624C2B
:204500008CEE9EE00E94624C82E29FE00E94624C89E59FE00E94624C81EE9AE7ACEFB0E4C4
:2045200089839A83AB83BC8380E094E0BE016F5F7F4F44E050E029E33CE10E94FF16C0C002
:204540001092060CBDC081E08093060CB9C0A090400CB090410CE090420CF090430C6090A5
:20456000440C7090450C8090460C9090470C2090480C3090490C40904A0C50904B0C03FF4D
:2045800023C0D6011A962D913D914D915C911D978091D40B882351F0CA01B90123E333E329
:2045A0004BEC51E40E9461D09B01AC01CA01B9012091180C3091190C40911A0C50911B0C34
:2045C0000E94EACC5B017C0104FF21C0F60126853785408951898091D40B882351F0CA011E
:2045E000B90123E333E34BEC51E40E9461D09B01AC01CA01B90120911C0C30911D0C409144
:204600001E0C50911F0C0E94EACC3B014C0105FF23C0D60152962D913D914D915C9155979A
:204620008091D40B882351F0CA01B90123E333E34BEC51E40E9461D09B01AC01CA01B901F0
:204640002091200C3091210C4091220C5091230C0E94EACC1B012C01B501C7019301A40128
:20466000710182010E94AB6EF601808186FF28C026893789408D518D8091D40B882351F02F
:20468000CA01B90123E333E34BEC51E40E9461D09B01AC01CA01B90120913302309134028F
:2046A00040913502509136020E9461D00E9420CE6093140C7093150C8093160C9093170CC4
:2046C0000E94CACA60938D0470938E0480938F04909390040C94482C01FD02C00C94362C58
:2046E000D60116968D919C9117978237910509F4C9C68337910508F081C08A32910509F48B
:204700007EC18B329105C8F58931910509F427C18A319105C8F48631910509F404C1873141
:20472000910548F48431910509F4F3C0459711F00C94482CF3C08731910509F4F9C0489725
:2047400011F00C94482C06C18C31910509F42BC18D31910548F48A31910509F406C14B97BA
:2047600011F00C94482C1AC18E31910509F427C1809711F00C94482C31C18336910509F4A5
:2047800027C684369105D8F48435910509F49AC58535910550F48235910509F48CC583357E
:2047A000910511F00C94482C89C58535910509F4A5C58C35910511F00C94482CC0C58A3698
:2047C000910509F45CC58B36910550F48836910509F45DC18936910511F00C94482C07C2E8
:2047E0008D36910509F40DC28F36910509F430C68B36910511F00C94482C53C58E3C910562
:2048000009F468C78F3C9105E8F58E3B910509F4E9C38F3B9105D8F48537910509F435C6B0
:204820008637910550F48337910509F424C68437910511F00C94482C7DC48737910509F4B2
:2048400035C68C38910511F00C94482C96C18B3C910509F4E3C68C3C910550F4893C910597
:2048600009F450C68A3C910511F00C94482C90C68C3C910509F4E5C68D3C910511F00C9458
:20488000482C25C7B1E080399B0709F498C7E1E081399E07E0F48D3D910509F480C78E3D0D
:2048A000910550F48F3C910509F418C78C3D910511F00C94482C61C7F1E08F329F0709F410
:2048C000AAC48E55914011F00C94482CCAC731E0843F930709F4ACC741E0853F940750F46E
:2048E00051E08139950709F46DC78259914009F0CFC76BC7B1E0863F9B0709F4AFC7E1E067
:20490000863F9E0708F49CC7875F914009F0C0C7DEC683E49DE00E942180BAC783E49DE067
:204920000E949483B5C783E49DE00E94577EB0C717FFAEC783E49DE060E00E94AF8ED6010B
:20494000D3966D917C91D49783E49DE040E00E948A7F9EC783E49DE00E946F7E99C783E42A
:204960009DE060E00E94E08293C712FF91C7F601478D50A161A172A18091AD0D882309F46F
:2049800087C74093A40D5093A50D6093A60D7093A70D83E89DE00E94408C7AC783E49DE0D8
:2049A0000E94657F75C717FF73C7D601D3966D917C91D49783E49DE00E94267F69C717FFBE
:2049C00067C783E49DE060E00E94AF8EF60163A974A983E49DE00E94D77E5AC717FF58C755
:2049E00083E49DE060E00E94AF8ED601D3966D917C91D49783E49DE00E949B7E49C712FF3E
:204A000047C713FF45C7F601878D90A1A1A1B2A1B7FD3EC78F3F9105A105B10511F00CF023
:204A200037C703A114A120E030E0F901EE0FFF1FED54FE4FE4918E2F90E08017910709F49E
:204A400027C72F5F3F4F2833310579F717FD20C7802F61E00E9401CC802FD6015F966C9179
:204A60000E947ECCF601678D70A1802F0E9483CB8CE994E0B8010E94A52DD6015F966D91CF
:204A80007C91909788EA94E00E946D2D01C70E944E3E882309F0FCC60E94CACA60938D04AA
:204AA00070938E0480938F04909390048091730283FDEEC6F6018081918193FD0AC092FF55
:204AC0000AC0878D90A1A1A1B2A10097A105B10511F40E946F1FD6018D919C91119792FFAF
:204AE000D7C65F968D909D90AD90BC9092979C012070317091FF1EC05E960C91232B11F408
:204B000010E00FC010E0F601628D738D848D958D20E030E040E050E00E94BFCF18160CF40F
:204B200011E0C501B4010E9453CE402F212F0E949B42AEC6E091C102F091C2020081232B4C
:204B400011F410E011C010E0D6015A966D917D918D919C915D9720E030E040E050E00E948B
:204B6000BFCF18160CF411E0C501B4010E9453CE402F212F0E949B428BC60E944E3E8823E2
:204B800009F086C60E94CACA60938D0470938E0480938F04909390048091730283FD78C6E0
:204BA000F6018081918192FF73C6E78CF0A001A112A190FD02C0BB2412C0BB24D6015A9623
:204BC0006D917D918D919C915D9720E030E040E050E00E94BFCF181614F4BB24B394C801D5
:204BE000B7010E9453CE4B2D0E94D73E51C683E0169507958A95E1F7802F81700E94EB1E08
:204C000047C60E944E3E882309F042C60E94CACA60938D0470938E0480938F049093900401
:204C20008091730283FD34C68FED9FE069E072E040E00E94069E8FED9FE00E94E3BC0E949A
:204C40006F1F8090C1029090C202F6012081318131FF07C0868D882321F41BE6812E11E05A
:204C6000912E32FF27C0D6015F96ED90FD900D911C919297F401A08030FD02C0BB2412C05E
:204C8000BB24D6015A966D917D918D919C915D9720E030E040E050E00E94BFCF181614F45D
:204CA000BB24B394C801B7010E9453CE4A2D2B2D0E949B42F40164A575A586A597A520A9F4
:204CC00031A942A953A90E94EACC7B018C0120E030E040E050E00E94BFCF18165CF4C801DB
:204CE000B70120E030E040E050E40E94B1CD882364F4CEC5C801B70120E030E040E050ECF5
:204D00000E94BFCF18160CF4C3C53324D4019A962D913C919B9798968D919C919997821752
:204D2000930714F4332433940E94CACA6DA77EA78FA798AB44245524320110E00E94CACA91
:204D400069A77AA78BA79CA7DC01CB012DA53EA54FA558A9821B930BA40BB50B895E9340F6
:204D6000A040B04058F080E00E94EB1E89A59AA5ABA5BCA58DA79EA7AFA7B8AB0E94521FAD
:204D80008091C1029091C2028816990609F067C0D4019396ED90FC9094971E141F040CF07A
:204DA0005EC0112309F05BC0332009F458C091966D917C919297882777FD8095982F0E9429
:204DC00053CE9B01AC01F40164A575A586A597A50E94BFCF18160CF042C000D000D000D01E
:204DE0000DB71EB70F5F1F4F662777276E197F09882777FD8095982F0E9453CE209133025C
:204E00003091340240913502509136020E9461D00E9420CE5B016C01F40187859089A1890A
:204E2000B289F80180839183A283B3831482158260E070E080E090E020E030E040E050E0DF
:204E4000EE24FF2487010E949E6D11E02DB73EB72A5F3F4F0FB6F8943EBF0FBE2DBF4114AB
:204E600051046104710409F053C03320C9F0D401D0966D917D918D919C91D39720E030E0DF
:204E800040E85FE30E94EACC9B01AC01F40164A575A586A597A50E94BFCF87FF1AC04ECFDB
:204EA000D401D0966D917D918D919C91D39720E030E040E85FE30E94EBCC9B01AC01F401E5
:204EC00064A575A586A597A50E94B1CD18160CF435CFD4015F966D917C919097882777FDD7
:204EE0008095982F28EE33E040E050E00E9437D12B013C0129A53AA54BA55CA5420E531EEB
:204F0000641E751E411451046104710409F416CFD301C20129A53AA54BA55CA5821B930BA6
:204F2000A40BB50B80509449A543B74708F406CF112309F44AC08091C1029091C20288160C
:204F4000990609F042C000D000D000D00DB71EB70F5F1F4FD40193966D917C9194978827EF
:204F600077FD8095982F0E9453CE209133023091340240913502509136020E9461D00E94AB
:204F800020CE5B016C01F40187859089A189B289F80180839183A283B3831482158260E003
:204FA00070E080E090E020E030E040E050E0EE24FF2487010E949E6D2DB73EB72A5F3F4F17
:204FC0000FB6F8943EBF0FBE2DBF109224100E94CACA60938D0470938E0480938F049093DC
:204FE000900456C423FD54C48FED9FE06DEF71E040E00E94069E8FED9FE00E94E3BC0E94DF
:205000006F1FD6018D919C91119792FF21C05F96ED90FD900D911C91929790FD02C0BB2425
:2050200010C0BB24F601628D738D848D958D20E030E040E050E00E94BFCF181614F4BB2403
:20504000B394C801B7010E9453CE4B2D0E94D73E6091DE017091DF018091E0019091E101F0
:205060002091E2013091E3014091E4015091E5010E94EACC7B018C0120E030E040E050E0B9
:205080000E94BFCF18165CF4C801B70120E030E040E450E40E94B1CD882364F4F9C3C801D1
:2050A000B70120E030E040E450EC0E94BFCF18160CF4EEC30E94CACA7B018C0114C00E9404
:2050C000CACA6E197F09800B910B695E73408040904038F080E00E94EB1E0E94CACA7B0117
:2050E0008C010E94521F6091DE017091DF018091E0019091E10120E030E040E05FE30E9456
:20510000EBCC2091E2013091E3014091E4015091E5010E94B1CD87FDD2CF109224100E9465
:20512000CACA60938D0470938E0480938F0490939004AEC323FDACC30E94CACA4B015C0186
:205140000E94CACA681979098A099B09695E73408040904038F080E00E94EB1E0E94CACA6C
:205160004B015C010E94521FC0901802D0901902D6011B96ED90FD900D911C911E97C80133
:20518000B70120E030E040EF51E40E94BFCF1816A4F4C801B701F60127813085418552857B
:2051A0000E94EACC9F7720E030E040E85FE30E94BFCF181614F4772402C077247394C09052
:2051C0001A02D0901B02D6011B96ED90FD900D911C911E97C801B70120E030E040EF51E4AF
:2051E0000E94BFCF18169CF4C801B701F60127813085418552850E94EACC9F7720E030E0D1
:2052000040E85FE30E94BFCF18160CF499CF772009F496CF3DC312FD03C026E930E005C0AF
:20522000D6015F962D913C91909713FD03C0CC24DD240AC0F601C3A0D4A0F2E0CF16D10408
:205240001CF0B2E0CB2ED12CF601EE0FFF1FE85EFD4FE080F180B901882777FD8095982F8C
:205260000E9453CEAB01BC01E3E016950795EA95E1F70170C7012C2D0E943E3F09C312FD15
:2052800003C08FEF90E005C0D6015F968D919C919097612F66956695669561700E947D1FCA
:2052A000F7C2612F669566956695617080E090E00E947D1FEDC21092070CEAC281E0809351
:2052C000070CE6C212FF14C0F601678D70A181A192A128EE33E040E050E00E9437D16093C7
:2052E0001D0270931E0280931F0290932002D0C20E946F1F81E00E948B7ACAC212FF16C0B6
:20530000D6015F966D917D918D919C91929728EE33E040E050E00E9437D160939104709393
:2053200092048093930490939404B2C210929104109292041092930410929404A9C203FFAF
:205340000DC0F60182859385A485B5858093270290932802A0932902B0932A02D6018C91BD
:2053600084FF0EC01E968D919D910D90BC91A02D80932B0290932C02A0932D02B0932E02BF
:20538000F601808185FF0CC082899389A489B58980932F0290933002A0933102B0933202BD
:2053A0000E94357BD6018C9186FF72C2E091C102F091C20256962D913D914D915C91599742
:2053C000218732874387548780810E94614360C212FD07C040E1842E47E2942EA12CB12C20
:2053E0000DC0F601678D70A181A192A128EE33E040E050E00E9437D14B015C0103FD5E9ACB
:2054000004FD5E9A05FD159A0E94CACA7B018C01E80CF91C0A1D1B1D02C00E94D97A0E94E2
:20542000CACAA8019701261B370B480B590BDA01C901805A9648A140B04078F3D6013C9120
:2054400033FD5E9834FD5E9835FF22C2159820C212FF04C0F601878D80937302809173026A
:2054600083FF16C260E070E080E090E040E020E00E949B420DC283E392E00E94D12D0E94EA
:20548000081E06C20E94D21C03C217FF01C2D601D3966D917C91D4978FED9FE040E00E947D
:2054A000329E8FED9FE00E94E3BCF2C10E946F1F83EB94E00E944A2D329B03C080EB94E093
:2054C00002C08DEA94E00E944A2D81EC94E00E944A2D339B03C080EB94E002C08DEA94E0EF
:2054E0000E944A2D8FEC94E00E944A2D349B03C080EB94E002C08DEA94E00E944A2D0E94B2
:20550000F91DC6C103FF0DC0F60182859385A485B5858093530290935402A0935502B093F8
:205520005602D6018C9184FF0EC01E968D919D910D90BC91A02D8093570290935802A093FB
:205540005902B0935A02F601808185FF0CC082899389A489B58980935B0290935C02A09353
:205560005D02B0935E02D6018C9186FF0EC056968D919D910D90BC91A02D80935F0290935C
:205580006002A0936102B09362020E94357B80C103FF0DC0F60182859385A485B58580937E
:2055A000630290936402A0936502B0936602D6018C9184FF0EC01E968D919D910D90BC9189
:2055C000A02D8093670290936802A0936902B0936A02F601808185FF0CC082899389A4890C
:2055E000B58980936B0290936C02A0936D02B0936E02D6018C9186FF0EC056968D919D9188
:205600000D90BC91A02D80936F0290937002A0937102B09372020E94357B3AC112FF38C106
:20562000F601278D30A141A152A112161306140615061CF0209368012BC181E080936801B2
:2056400027C18091C1029091C20212FD03C0FC01B59610C0F601878D90A1A1A1B2A1B7FD3A
:2056600017C10097A105B10519F4E0E9F1E002C0E7EDF1E003FF0BC0D6011A962D913D9171
:205680004D915C911D97228F338F448F558FD6018C9184FF0AC01E962D913D914D915C9115
:2056A0005197268F378F40A351A3D6018C9185FF0AC052962D913D914D915C91559722A37E
:2056C00033A344A355A3CF010E947E3BE1C00E941530DEC0C6010E942039DAC003FF0DC099
:2056E000F60182859385A485B5858093BF0C9093C00CA093C10CB093C20CD6018C9186FFDA
:2057000011C0E091C102F091C20256962D913D914D915C915997278B308F418F528F8081E9
:205720000E946143F601808185FF0CC082899389A489B5898093C30C9093C40CA093C50C70
:20574000B093C60C4091BF0C5091C00C6091C10C7091C20C8DED94E022E00E94A82E409125
:20576000C30C5091C40C6091C50C7091C60C83EE94E022E00E94E42E8BC012FD05C024E650
:2057800030E040E050E007C0D6015F962D913D914D915C919297C9010E94701C79C012FD56
:2057A00005C024E630E040E050E005C0F601278D30A141A152A1C9010E945B1C69C00E94F6
:2057C0006F1F66C00E949A6F63C010FF08C0D6015A96CD90DD90ED90FC905D9708C0C090CA
:2057E000B70CD090B80CE090B90CF090BA0CB80134E0769567953A95E1F76170A80125E04D
:20580000569547952A95E1F74170980196E0369527959A95E1F7217083E0169507958A9582
:20582000E1F7802F8170870176010E94DC7930C080E00E94953287E297E00E94F02D28C0BA
:205840000E94B235E091C102F091C20280810E94614387E497E00E94F02D1AC00E949B390E
:2058600017C08BEE91E00E94D12D12C011FF07C00E946F1FF601868D0E94614309C022FFB4
:2058800007C082EC93E00E944A2DC6010E940948E4960FB6F894DEBF0FBECDBFCF91DF91FC
:2058A0001F910F91FF90EF90DF90CF90BF90AF909F908F907F906F905F904F903F902F9076
:2058C0000895CF93DF930E942F4E0E94F847EC018FED9FE00E94009F2097D1F08091AE0DEA
:2058E000882381F0888181FF04C08E819F814D9791F083E49DE0BE010E94C780CE010E94AE
:20590000254D03C0CE010E94AC1FCE010E94364D0E94D97AD8CF83E49DE00E94067FEECFBE
:20592000CF93DF9320C08091AE0D882381F0888181FF04C08E819F814D9739F183E49DE05D
:20594000BE010E94C780CE010E94254D03C0CE010E94AC1FCE010E94364D0E94521F8FED3A
:205960009FE00E94009F8091CE0B882329F40E94F847EC01009771F00E942F4E8FED9FE0D5
:205980000E94009F209779F6E8CF83E49DE00E94067FD9CFDF91CF910895CF93DF93EC0108
:2059A00005C021968FE694E00E94C95268816623C1F7DF91CF910895AF92BF92CF92DF92CA
:2059C000EF92FF920F931F93DF93CF93CDB7DEB72B970FB6F894DEBF0FBECDBFC62ED92E70
:2059E0001B869BE0A92EB12CAC0EBD1E6C2D9D2D2AE030E040E050E00E948AD1D52E7901FB
:205A0000042F152F80E3C80EC801B7012AE030E040E050E00E9437D1C61AF501C2925F01B7
:205A2000CE2C7F2D802FE114F10401051105F1F6CF010E94CD2C2B960FB6F894DEBF0FBE3D
:205A4000CDBFCF91DF911F910F91FF90EF90DF90CF90BF90AF900895EF92FF920F931F932D
:205A60007B018C0197FF0DC08FE694E06DE20E94C95210950095F094E094E11CF11C011D6B
:205A8000111DC801B7010E94DC2C1F910F91FF90EF900895CF93DF93EC0104C08FE694E044
:205AA0000E94C952FE01649121966623B9F7DF91CF910895EF92FF920F931F937A018B016B
:205AC0000E944A2DC801B7010E94DC2C0E94F91D1F910F91FF90EF900895EF92FF920F931B
:205AE0001F937B010E944A2D0027F7FC0095102FC801B7010E942C2D0E94F91D1F910F91ED
:205B0000FF90EF900895EF92FF920F931F937A018B010E944A2DC801B7010E94DC2C1F9179
:205B20000F91FF90EF900895EF92FF920F931F937A018B010E944A2DC801B7010E942C2D18
:205B40001F910F91FF90EF900895EF92FF920F931F937B010E944A2D0027F7FC0095102F61
:205B6000C801B7010E942C2D1F910F91FF90EF9008950F931F938B010E944A2DC8010E944A
:205B8000CD2C1F910F9108950F931F938B010E944A2DC8010E94CD2C0E94F91D1F910F91BA
:205BA00008950E944A2D0E94F91D08950F931F938C018DEB92E00E944A2DC8010E94D12D8D
:205BC0001F910F9108950F931F938C0184EC92E00E944A2DC8010E94D12D1F910F910895A6
:205BE0000F931F938C0184EC92E00E944A2DC8010E944A2D1F910F9108959F92AF92BF9237
:205C0000CF92DF92EF92FF920F931F93CF93DF937B018C01942EA80197010E941BD1882333
:205C200019F085EB92E020C0C0E0D0E057016801E894D7F8C601B5012FEF3FEF4FE75FE7F8
:205C40000E941BD1882351F4C601B5012FEF3FEF4FE75FE70E94B1CD181614F0C1E0D0E0DE
:205C6000219729F089EB92E00E944A2D65C0C801B70120E030E040E050E00E94B1CD882383
:205C80004CF48FE694E06DE20E94C95217FB109517F9109520E030E040E05FE3DD240BC025
:205CA000CA01B90120E030E040E251E40E94B8CD9B01AC01D394D91498F3C801B7010E9486
:205CC000EBCC5B016C010E9425CE7B018C010E94DC2C992029F08FE694E06EE20E94C95234
:205CE000C801B7010E9451CE9B01AC01C601B5010E94EACC1FC020E030E040E251E40E945C
:205D000061D07B018C010E9420CE5B016C01CC24B7FCC094DC2CC601B5010E942C2DC601B2
:205D2000B5010E9453CE9B01AC01C801B7010E94EACC9A949920F9F6DF91CF911F910F91D2
:205D4000FF90EF90DF90CF90BF90AF909F900895DF92EF92FF920F931F937A018B01D22E2F
:205D60000E944A2DC801B7014D2D0E94FD2D1F910F91FF90EF90DF900895EF92FF920F9325
:205D80001F93CF93DF93162F072FE42EF22E0E944A2D212F302FC901EC0110E00AC04991BD
:205DA0005991699179918FE794E02F2D0E94A82E1F5F1E15A0F30E94F91DDF91CF911F91BB
:205DC0000F91FF90EF900895DF92EF92FF920F931F937A018B01D22E0E944A2DC801B70100
:205DE0004D2D0E94FD2D0E94F91D1F910F91FF90EF90DF9008959C01F999FECF32BD21BD72
:205E0000F89A80B508959C01F999FECF1FBA32BD21BD60BD0FB6F894FA9AF99A0FBE08957D
:205E2000885C904022E08835920778F464E670E00E9463D16F5F7F4F8EEA97E00E94A52D7B
:205E40008FE694E060E20E94C95208950F931F93CF93DF93EC018B0184EB97E0BE010E94D5
:205E6000A52D8FE694E060E20E94C952F999FECFD2BDC1BDF89A60B570E0882777FD8095CD
:205E8000982F0E942C2D8FE694E060E20E94C952CE010E94102FC8010E94D12DDF91CF916F
:205EA0001F910F910895CF92DF92EF92FF920F931F938C016B018BEB97E0B8010E94A52DAA
:205EC0008FE6E82E84E0F82EC70160E20E94C952C8016BEF7EE20E94E916AA2797FDA09528
:205EE000BA2FBC01CD010E942C2DC70160E20E94C952C8010E94102FC6010E94D12D1F91AB
:205F00000F91FF90EF90DF90CF900895CF92DF92EF92FF920F931F938C016B0182EC97E052
:205F2000B8010E94A52D9FE6E92E94E0F92EC70160E20E94C952C8016BEF7EE20E94C31638
:205F40000E942C2DC70160E20E94C952C8010E94102FC6010E94D12D1F910F91FF90EF9010
:205F6000DF90CF900895F999FECF12BC11BCF89A80B5813071F48BE490E06BEF7EE20E94A4
:205F8000C316609321027093220280932302909324020895DF93CF9300D000D0CDB7DEB740
:205FA000BC01CE01019644E050E02BEF3EE20E94A71629813A814B815C81B901CA010F909F
:205FC0000F900F900F90CF91DF910895BF92CF92DF92EF92FF920F931F938C016B01B42E13
:205FE00089EC97E0B8010E94A52D2FE6E22E24E0F22EC70160E20E94C952C8010E94CA2F14
:206000004B2D0E94FD2DC70160E20E94C952C8010E94102FC6010E94D12D1F910F91FF9085
:20602000EF90DF90CF90BF9008958BE490E060ED77E00E94862F81E890E069ED77E043E0A4
:206040000E94E62F8DE790E06EEE77E00E94862F8FE490E061E078E00E94862F83E590E0F0
:206060006FE178E00E94862F83E090E062E079E044E00E94E62F87E090E066E179E044E03D
:206080000E94E62F8BE090E06AE279E044E00E94E62F8FE090E06EE379E043E00E94E62F8B
:2060A00083E190E06AE579E043E00E94E62F87E190E066E779E043E00E94E62F8BE190E056
:2060C00062E979E043E00E94E62F8FE190E060EB79E043E00E94E62F83E290E06EEC79E05C
:2060E00043E00E94E62F87E290E06EED78E043E00E94E62F8FE290E06FEE78E043E00E9405
:20610000E62F85E890E068E478E043E00E94E62F89E890E068E578E043E00E94E62F8DE83A
:2061200090E068E678E043E00E94E62F81E990E068E778E043E00E94E62F85E990E06AE8E4
:2061400078E043E00E94E62F89E990E06CE978E043E00E94E62F83E390E06CEE79E043E0F8
:206160000E94E62F87E390E069E07AE043E00E94E62F8BE390E066E27AE043E00E94E62FB7
:206180008FE390E063E47AE043E00E94E62F83E490E067E67AE043E00E94E62F87E490E06F
:2061A0006BE87AE043E00E94E62F80E793E060E177E00E94262F8AE690E06CE57BE00E94C1
:2061C000262F8BE690E063E77BE00E94262F8CE790E065E87BE00E94262F8CE690E067E939
:2061E0007BE043E00E94E62F80E790E066EA7BE043E00E94E62F84E790E065EB7BE043E065
:206200000E94E62F88E790E064EC7BE00E94262F88EC90E06EED7BE043E00E94E62F8CEC5A
:2062200090E06BEE7BE043E00E94E62F80ED90E060E07CE043E00E94E62F84ED90E066E1E5
:206240007CE043E00E94E62F88ED90E06CE27CE00E94262F89ED90E06FE37CE00E94262FF7
:2062600085EF90E06DE47CE00E94262F8AED90E06BE57CE044E00E94E62F8EED90E060E7F6
:206280007CE044E00E94E62F82EE90E06BE77CE044E00E94E62F86EE90E066E87CE00E942E
:2062A000262F87EE90E06CE97CE00E94862F8BEE90E06DEA7CE00E94862F8FEE90E06EEB63
:2062C0007CE00E94532F8AEF90E067ED7CE00E94532F8CEF90E06DEF7CE00E94532F8EEF3D
:2062E00090E063E27DE00E94262F0895DF93CF9300D000D0CDB7DEB749835A836B837C83D5
:20630000BE016F5F7F4F44E050E023E03FE20E94FF160F900F900F900F90CF91DF9108950A
:2063200088E293E040E050E060E272E40E9476318CE293E040E050E060E070E40E94763141
:2063400088E493E040E050E066E173E40E94763180E293E040E050E060E070E00E94763129
:2063600084E293E040E050E060E070E00E94763180E393E040E050E060EA71E40E9476310D
:2063800084E393E040E050E060EA71E40E94763188E393E040E050E060E273E40E947631DB
:2063A0008CE393E040E050E060EA71E40E94763180E493E040E050E068EC72E40E947631A9
:2063C00084E493E040E050E060E273E40E94763181EA93E040E050E060E271E40E947631A2
:2063E0000895EF92FF920F931F936091D50C7091D60C8091D70C9091D80C20E030E040E0BC
:2064000050E00E94B1CD882309F48AC00E94CACA2091D10C3091D20C4091D30C5091D40C66
:20642000621B730B840B950B28EE33E040E050E00E948AD179018A018DE790E06BEF7EE219
:206440000E94C316E60EF71E081F191F8DE790E0B801A70123E03FE20E941B1781E890E043
:206460000E94CA2F7B018C016091D50C7091D60C8091D70C9091D80C2FE632E143E85AE33A
:206480000E9461D09B01AC01C801B7010E94EBCCAB01BC0181E890E00E94763180E090E0AB
:2064A000A0E0B0E08093D50C9093D60CA093D70CB093D80C0E94CACA6093D10C7093D20CAF
:2064C0008093D30C9093D40C20E030E040E02836310539F0F999FECF32BD21BDF89A80B5E7
:2064E000480F2F5F3F4F88E02030380781F7F999FECF88E690E092BD81BDF89A80B54817CA
:2065000069F0F999FECF1FBA88E690E092BD81BD40BD0FB6F894FA9AF99A0FBE0E94081E75
:206520001F910F91FF90EF900895FF920F931F93CF93DF93F82E4091210250912202609197
:206540002302709124028BE490E023E03FE20E941B174091910450919204609193047091B2
:2065600094048FE490E023E03FE20E941B1740911D0250911E0260911F027091200283E51A
:2065800090E023E03FE20E941B1740912702509128026091290270912A0283E090E00E94D0
:2065A000763140912B0250912C0260912D0270912E0287E090E00E94763140912F025091D3
:2065C000300260913102709132028BE090E00E9476314091370250913802609139027091BA
:2065E0003A028FE090E00E94763140913B0250913C0260913D0270913E0283E190E00E9423
:20660000763140913F0250914002609141027091420287E190E00E94763140914702509109
:2066200048026091490270914A028BE190E00E94763140914B0250914C0260914D027091D4
:206640004E028FE190E00E94763140914F0250915002609151027091520283E290E00E945C
:2066600076314091BF0C5091C00C6091C10C7091C20C87E290E00E9476314091C30C5091FA
:20668000C40C6091C50C7091C60C8FE290E00E9476314091530250915402609155027091C5
:2066A000560283E390E00E94763140915702509158026091590270915A0287E390E00E94D9
:2066C000763140915B0250915C0260915D0270915E028BE390E00E947631409163025091B7
:2066E000640260916502709166028FE390E00E947631409167025091680260916902709166
:206700006A0283E490E00E94763140916B0250916C0260916D0270916E0287E490E00E9412
:2067200076312091EA01F999FECF1FBA8AE690E092BD81BD20BD0FB6F894FA9AF99A0FBE4F
:206740002091EF01F999FECF1FBA8BE690E092BD81BD20BD0FB6F894FA9AF99A0FBE20911F
:20676000F001F999FECF1FBA8CE790E092BD81BD20BD0FB6F894FA9AF99A0FBE4091F1019B
:206780005091F2016091F3017091F4018CE690E00E9476314091F5015091F6016091F70197
:2067A0007091F80180E790E00E9476314091F9015091FA016091FB017091FC0184E790E052
:2067C0000E9476312091FD01F999FECF1FBA88E790E092BD81BD20BD0FB6F894FA9AF99AC8
:2067E0000FBE4091A30C5091A40C6091A50C7091A60C85E890E00E9476314091AB0C5091D7
:20680000AC0C6091AD0C7091AE0C89E890E00E9476314091B30C5091B40C6091B50C70914D
:20682000B60C8DE890E00E94763140919F0C5091A00C6091A10C7091A20C81E990E00E9496
:2068400076314091A70C5091A80C6091A90C7091AA0C85E990E00E9476314091AF0C509187
:20686000B00C6091B10C7091B20C89E990E00E9476318DE990E040E050E060E070E00E945C
:20688000763181EA90E040E050E060E070E00E94763185EA90E040E050E060E070E00E94EC
:2068A000763120914C0CF999FECF1FBA80E793E092BD81BD822F90E045E0969587954A951D
:2068C000E1F7817080BD0FB6F894FA9AF99A0FBE0FE41CE0C0E0D0E0CE01880F991F880F79
:2068E000991FF80141915191619171918F01845B9C4F0E9476312196C930D10569F74091E5
:20690000740150917501609176017091770188EC90E00E94763140917A0150917B01609103
:206920007C0170917D018CEC90E00E9476314091820150918301609184017091850180ED07
